:100000000C948C000C94B4000C94B4000C949E05D9
:100010000C949E050C949E050C94B4000C94B400B2
:100020000C94B4000C94B4000C94B4000C94B40080
:100030000C94B4000C94B4000C94B4000C94B40070
:100040000C9485080C94B4000C94A7020C948102C3
:100050000C94B4000C94B4000C94B4000C94B40050
:100060000C94B4000C94B400BD0DCF0DD20DD90D7D
:10007000E00D0E0E150E220E2F0E3B0E3B0E3B0E0C
:100080003B0E3B0E3B0E3B0E3B0E3B0E3B0E3B0E28
:100090003B0E3B0E3B0E3B0E3B0E3B0E3B0E3B0E18
:1000A0003B0E3B0E3B0E3B0EBD0DCA0DCF0DD20DD0
:1000B000D90DE00DE70DF40D010E00000000230046
:1000C0002600290000000000240027002A0000006C
:1000D0000000250028002B00040404040404040488
:1000E00002020202020203030303030301020408E3
:1000F0001020408001020408102001020408102092
:1001000000000008000201000003040700000000D6
:1001100000000000480F380F11241FBECFEFD8E0B9
:10012000DEBFCDBF24E0AAE5B2E001C01D92AF332F
:10013000B207E1F712E0A0E0B1E0E0E9FBE202C0C3
:1001400005900D92AA35B107D9F710E0CBE8D0E0C1
:1001500004C02197FE010E945B13CA38D107C9F77A
:100160000E94CF080C94BB150C940000FC01538D29
:10017000448D252F30E0842F90E0821B930B541781
:1001800010F0CF96089501970895FC01918D828D0E
:10019000981761F0828DDF01A80FB11D5D968C91DB
:1001A000928D9F5F9F73928F90E008958FEF9FEFE6
:1001B0000895FC01918D828D981731F0828DE80FA2
:1001C000F11D858D90E008958FEF9FEF0895FC015C
:1001D000918D228D892F90E0805C9F4F821B910929
:1001E0008F73992708958EE992E00E94E70021E03D
:1001F000892B09F420E0822F0895FC01848DDF0112
:10020000A80FB11DA35ABF4F2C91848D90E0019689
:100210008F739927848FA689B7892C93A089B18978
:100220008C9180648C93938D848D981306C0028882
:10023000F389E02D80818F7D80830895EF92FF9276
:100240000F931F93CF93DF93EC0181E0888F9B8DF9
:100250008C8D981305C0E889F989808185FD24C0BB
:10026000F62E0B8D10E00F5F1F4F0F731127E02E3E
:100270008C8DE8120CC00FB607FCFACFE889F9891B
:10028000808185FFF5CFCE010E94FD00F1CF8B8DDF
:10029000FE01E80FF11DE35AFF4FF0820B8FEA8950
:1002A000FB898081806207C0EE89FF896083E889CD
:1002B000F98980818064808381E090E0DF91CF9133
:1002C0001F910F91FF90EF900895CF93DF93EC0172
:1002D000888D8823C9F0EA89FB89808185FD05C066
:1002E000A889B9898C9186FD0FC00FB607FCF5CFA0
:1002F000808185FFF2CFA889B9898C9185FFEDCFE8
:10030000CE010E94FD00E7CFDF91CF91089580E0FC
:1003100090E0892B29F00E94F30081110C940000D9
:100320000895CF92DF92EF92FF920F931F93CF9396
:10033000DF936C017A018B01C0E0D0E0CE15DF05C0
:1003400089F0D8016D918D01D601ED91FC9101905C
:10035000F081E02DC6010995892B11F47E0102C0C0
:100360002196ECCFC701DF91CF911F910F91FF90A4
:10037000EF90DF90CF900895089520919C023091E6
:100380009D022817390771F490919B0280919A027F
:10039000981741F0E0919B02F0E0E65AFD4F808112
:1003A00090E008958FEF9FEF089508951F93CF93E6
:1003B000DF93DC015C962D913C915D972115310511
:1003C00039F481E090E013969C938E9312973DC090
:1003D0005196ED91FC91529750969C915097892F90
:1003E00080951FB75E964C915E9741FB772770F919
:1003F00041FD6095F8944081772311F0492B01C0AD
:1004000048234083E9012197F1F748E0508160FFDC
:1004100002C0592B01C058235083E9012197F1F7FD
:100420006695415099F7772321F090818923808345
:1004300003C08081982B90831FBF5C968D919C9107
:100440005D970197F1F721E030E0C901DF91CF918D
:100450001F91089520919C0230919D022817390721
:1004600071F480919A0220919B0290E0805C9F4FF2
:10047000821B910960E470E00E940613089580E0F9
:1004800090E0089520919C0230919D022817390731
:10049000B9F490919B0280919A02981789F0E091AB
:1004A0009B02F0E0E65AFD4F808120919B0230E0F4
:1004B0002F5F3F4F2F73332720939B0290E00895C7
:1004C0008FEF9FEF08952AE031E0FC013183208314
:1004D000E0919C02F0919D02E817F90759F4A38975
:1004E000B4899C918589809589238C9310929D0273
:1004F00010929C020895089580E090E008950E9473
:1005000074151F920F920FB60F9211242F933F93E1
:100510004F935F936F937F938F939F93AF93BF930B
:10052000EF93FF938EE992E00E94FD00FF91EF911F
:10053000BF91AF919F918F917F916F915F914F91FB
:100540003F912F910F900FBE0F901F9018951F9203
:100550000F920FB60F9211242F938F939F93EF93C7
:10056000FF93E091AE02F091AF028081E091B4027E
:10057000F091B50282FD12C090818091B7028F5F29
:100580008F732091B802821751F0E091B702F0E02A
:10059000E256FD4F958F8093B70201C08081FF9195
:1005A000EF919F918F912F910F900FBE0F901F9001
:1005B00018956115710579F0FB0101900020E9F7AC
:1005C0003197AF01461B570BDC01ED91FC91028086
:1005D000F381E02D099480E090E008950F931F933C
:1005E000CF93DF93EC010E94D9028C0169ED71E099
:1005F000CE010E94D902800F911FDF91CF911F91F0
:100600000F9108950F931F93CF93DF93EC0188818F
:100610009981009729F02A813B812617370788F4B2
:100620008B016F5F7F4F0E94AA14009761F099833E
:1006300088831B830A832C813D81232B11F4FC01C9
:10064000108281E001C080E0DF91CF911F910F9176
:100650000895CF93DF93EC0188819981009711F081
:100660000E941214198218821D821C821B821A8217
:10067000DF91CF910895EF92FF920F931F93CF9345
:10068000DF93EC017B018A01BA010E940203811110
:1006900004C0CE010E94290307C01D830C83B7014B
:1006A000888199810E948B15CE01DF91CF911F9196
:1006B0000F91FF90EF900895CF93DF93EC016115B8
:1006C000710559F0FB0101900020E9F73197AF0166
:1006D000461B570B0E943B0302C00E942903CE0118
:1006E000DF91CF910895FC01808191810C941214C7
:1006F000FC0111821082138212821582148261150C
:10070000710551F0FB0101900020E9F73197AF012D
:10071000461B570B0C943B030895CF93DF93EC01DA
:100720008A859B85AC85BD858E839F83A887B98785
:100730000E943F086A837B838C839D8381E0898349
:100740008883DF91CF9108952F923F924F925F92CD
:100750006F927F928F929F92AF92BF92CF92DF92D1
:10076000EF92FF920F931F93CF93DF93D82FC92F50
:100770008B010E942D1024E630E040E050E00E9402
:100780001A1349015A019B01AC0160E876E988E936
:1007900090E00E94F6126B017C01F8019182808248
:1007A000ED2FFC2F2191822F022E000C990BC09768
:1007B0000A97C0F32E3239F51F0180E8882E86E9AA
:1007C000982E88E9A82EB12C9AE0492E512C612C44
:1007D000712CF101C1911F010C2E000CDD0BE09773
:1007E000CA30D10580F4C501B401A30192010E9471
:1007F0001A1349015A01DE010E946113C60ED71E69
:10080000E81EF91EE6CFA5E0B0E0A70196010E9420
:100810008D116F5F7F4F8F4F9F4F23E030E040E09F
:1008200050E00E941A13F8012283338344835583D6
:100830001682DF91CF911F910F91FF90EF90DF9083
:10084000CF90BF90AF909F908F907F906F905F9070
:100850004F903F902F900895FF920F931F93CF9347
:10086000DF93EC01FF24F39488818D3211F0F12C99
:1008700001C02196CE010E942D109B01AC01A4E67F
:10088000B0E00E948D11FE014991242F042E000C2E
:10089000330B205331092A303105A8F34E3241F58C
:1008A0002181022E000C330B205331092A303105EF
:1008B000F8F44AE0429F8001439F100D1124012E5D
:1008C000000C220B330B600F711F821F931F0281DC
:1008D000002E000C110B005311090A30110540F4D1
:1008E000012E000C220B330B600F711F821F931F10
:1008F000FF2039F090958095709561957F4F8F4FCF
:100900009F4FDF91CF911F910F91FF900895CF934B
:10091000DF93EC019A01AB011B8E1A8E198E188E93
:100920001F8A1E8A60E079E08DE390E00E943C130C
:10093000F9012430310518F0C901039702C081E0A4
:1009400090E09D8F8C8F6C85663108F069C0C9017D
:10095000969587958431910510F0439702C081E008
:1009600090E09F8B8E8B369718F0C901059702C0D7
:1009700081E090E0998F888FC901880F991F280F17
:10098000391F36952795369527952D30310518F066
:100990002C50310902C021E030E03B8F2A8F90912A
:1009A0006800683050F021E06E3008F420E081E00B
:1009B00001C0880F2A95EAF701C084E0892B809353
:1009C00068009C85983038F09E3040F0963148F0B1
:1009D00020E030E008C02DE630E005C02BE630E036
:1009E00002C02CE630E03C8B2B8B983030F481E059
:1009F00001C0880F9A95EAF70EC0292F30E09E308B
:100A000018F42850310902C02E50310981E001C08C
:100A1000880F2A95EAF78D8B8C8D9D8D0197F1F7C4
:100A20008A8D9B8D892B09F1E0919C02F0919D02AA
:100A3000EC17FD07D1F0309739F0A389B4899C9168
:100A40008589809589238C938E8D8E7F8E8F1092D1
:100A50009A0210929B02D0939D02C0939C02EB8954
:100A6000FC8990818D89892B8083DF91CF910895B6
:100A70000F931F93CF93DF93EC01162F042F1B824C
:100A80001A8288EE93E0A0E0B0E08C839D83AE8371
:100A9000BF838AE091E0998388831F8A1E8A198E1A
:100AA000188E1B8E1A8E1D8E1C8E6E8D6E7F20FBF7
:100AB00061F96E8F6695617081E06827842F0E94CE
:100AC0007D0761E0802F0E94C907402F50E0FA01A6
:100AD000E451FF4FE491E88BFA01E852FF4FE491B3
:100AE000F0E0EE0FFF1FE253FF4F859194919A8B38
:100AF000898B60E0812F0E94C9078E8D81FD04C023
:100B000061E0812F0E947D071C87612F70E0FB014F
:100B1000E451FF4FE491ED87FB01E852FF4FE49170
:100B2000F0E0EE0FFF1FE654FF4F859194919F87F1
:100B30008E87DF91CF911F910F9108951F920F9291
:100B40000FB60F9211242F933F934F935F936F93A0
:100B50007F938F939F93AF93BF93EF93FF93E09116
:100B60009C02F0919D02309709F451C0968DA685A4
:100B7000B785858591FF04C09C91892329F447C0DE
:100B80009C91892309F043C0A389B4899C918589EC
:100B9000809589238C93868997890197F1F7608DD9
:100BA000718DA685B785558538E020E0CB0101978A
:100BB000F1F7822F90E095958795282F4C9145234A
:100BC00009F02068315091F7868D81FD2095809144
:100BD0009A0290E001968F73992730919B02381703
:100BE00049F0A0919A02B0E0A65ABD4F2C93809391
:100BF0009A0203C0868D8160868F828D938D0197C6
:100C0000F1F7A389B4899C918589892B8C93FF91F5
:100C1000EF91BF91AF919F918F917F916F915F9174
:100C20004F913F912F910F900FBE0F901F901895ED
:100C30003FB7F8948091370490913804A09139041B
:100C4000B0913A0426B5A89B05C02F3F19F0019634
:100C5000A11DB11D3FBFBA2FA92F982F8827820F42
:100C6000911DA11DB11DBC01CD0142E0660F771F92
:100C7000881F991F4A95D1F708958F929F92AF923E
:100C8000BF920F931F93CF93DF93CDB7DEB7A1979A
:100C90000FB6F894DEBF0FBECDBF19A2423008F4E4
:100CA0004AE08E010F5D1F4F842E912CA12CB12C98
:100CB000A50194010E941A13E62FB901CA0101503F
:100CC0001109EA3014F4E05D01C0E95CD801EC934D
:100CD000232B242B252B61F7B80183E194E00E949C
:100CE000D902A1960FB6F894DEBF0FBECDBFDF913B
:100CF000CF911F910F91BF90AF909F908F900895CB
:100D0000E0911304F09114040190F081E02D682F1C
:100D100083E194E009944F925F926F927F928F9259
:100D20009F92AF92BF92CF92DF92EF92FF926B01B0
:100D30007C01B42E9B01AC010E94F112882319F0B2
:100D40006EE472E027C026013701E89477F82FEFB0
:100D50003FEF4FE75FE7C301B2010E94F11281113B
:100D60000DC02FEF3FEF4FE75FE7C301B2010E94D5
:100D7000691018161CF462E572E00CC02FEF3FEF0B
:100D80004FE75FE4C701B6010E94EC12181694F415
:100D900066E572E083E194E0FF90EF90DF90CF9002
:100DA000BF90AF909F908F907F906F905F904F908B
:100DB0000C94D9022FEF3FEF4FE75FECC701B6016C
:100DC0000E94691087FDE4CF20E030E0A901C7014F
:100DD000B6010E94691087FF09C08DE20E9480065B
:100DE0004C01F7FAF094F7F8F09402C0812C912CA2
:100DF000A12C60E070E080E09FE3AB1441F020E0C4
:100E000030E040E251E40E944B12A394F6CF9B01E4
:100E1000AC01C701B6010E94DF112B013C010E9409
:100E2000BD126B017C010E946E109B01AC01C301DD
:100E3000B2010E94DE112B013C014AE0C701B6015C
:100E40000E943D067C01E80CF91CBB2029F08EE2D3
:100E50000E948006E80EF91EDB2CDD2021F120E047
:100E600030E040E251E4C301B2010E94CF102B01F7
:100E70003C010E94BD124B01A12CB12C4AE0C501DE
:100E8000B4010E943D06E80EF91EC501B4010E949E
:100E90006E109B01AC01C301B2010E94DE112B0157
:100EA0003C01DA94DACFC701FF90EF90DF90CF904A
:100EB000BF90AF909F908F907F906F905F904F907A
:100EC0000895CF93DF932091450330914603232B60
:100ED00079F0FC01C0914103D0914203608171819E
:100EE000CE010E94A115009719F08C1B9D0B02C02A
:100EF0008FEF9FEFDF91CF91089590E0FC01E050DC
:100F0000FF4F3491FC01E451FF4F2491FC01E85262
:100F1000FF4FE491EE2309F43BC0332339F1333022
:100F200091F038F43130A9F0323001F584B58F7D7D
:100F300012C0373091F03830A1F03430B9F48091DC
:100F400080008F7D03C0809180008F778093800028
:100F50000DC084B58F7784BD09C08091B0008F77B4
:100F600003C08091B0008F7D8093B000F0E0EE0F61
:100F7000FF1FE253FF4FA591B4918FB7F894EC9106
:100F8000611103C020952E2301C02E2B2C938FBFFF
:100F90000895CF93DF9390E0FC01E451FF4F24913B
:100FA000FC01E852FF4F8491882361F190E0880FA3
:100FB000991FFC01EC53FF4FC591D491FC01E25302
:100FC000FF4FA591B491611109C09FB7F894888132
:100FD000209582238883EC912E230BC0623061F42C
:100FE0009FB7F8943881822F809583238883EC9172
:100FF0002E2B2C939FBF06C08FB7F894E8812E2B21
:1010000028838FBFDF91CF9108958F929F92AF92E7
:10101000BF92CF92DF92EF92FF926B017C010E9410
:1010200018064B015C01C114D104E104F104F1F094
:101030000E941806DC01CB0188199909AA09BB098D
:10104000883E9340A105B10570F321E0C21AD10892
:10105000E108F10888EE880E83E0981EA11CB11CFF
:10106000C114D104E104F10419F7DDCFFF90EF9032
:10107000DF90CF90BF90AF909F908F9008952FB743
:10108000F894609133047091340480913504909108
:1010900036042FBF08950F931F930E943F0860935B
:1010A0001B0470931C0480931D0490931E04E09114
:1010B0001304F09114040284F385E02D83E194E09D
:1010C000099597FF1FC00E943F0800911B041091D3
:1010D0001C0420911D0430911E04DC01CB01801BF7
:1010E000910BA20BB30B00911704109118042091DF
:1010F000190430911A0480179107A207B307B8F2B8
:101100008FEF9FEF1F910F9108951F920F920FB6CF
:101110000F9211242F933F938F939F93AF93BF937D
:101120008091330490913404A0913504B091360439
:101130003091320423E0230F2D3720F40196A11DB6
:10114000B11D05C026E8230F0296A11DB11D2093F5
:1011500032048093330490933404A0933504B09305
:1011600036048091370490913804A0913904B091ED
:101170003A040196A11DB11D809337049093380461
:10118000A0933904B0933A04BF91AF919F918F918E
:101190003F912F910F900FBE0F901F901895CF93F6
:1011A000DF93CDB7DEB72C970FB6F894DEBF0FBE36
:1011B000CDBF789484B5826084BD84B5816084BDE0
:1011C00085B5826085BD85B5816085BD80916E00E5
:1011D000816080936E001092810080918100826016
:1011E0008093810080918100816080938100809153
:1011F00080008160809380008091B1008460809342
:10120000B1008091B00081608093B00080917A003D
:10121000846080937A0080917A00826080937A0063
:1012200080917A00816080937A0080917A00806852
:1012300080937A001092C10040E855E260E070E0CF
:1012400083E194E00E94870440E855E260E070E0AA
:1012500084EF93E00E948704E091AE02F091AF0228
:1012600002E00083E091AA02F091AB021082E091CB
:10127000AC02F091AD028FEC80831092B602E09147
:10128000B202F091B30216E01083E091B002F09147
:10129000B102808180618083E091B002F091B1025F
:1012A000808188608083E091B002F091B1028081FA
:1012B00080688083E091B002F091B10280818F7DDF
:1012C000808368E471E083E194E00E94EE0264EFC1
:1012D00071E080E090E00E94050861E083E00E94F8
:1012E000C90761E084E00E94C90761E085E00E94CF
:1012F000C907E091AE02F091AF020083E091AA022B
:10130000F091AB021082E091AC02F091AD0287E661
:1013100080831092B602E091B202F091B302108382
:10132000E091B002F091B102808180618083E09110
:10133000B002F091B102808188608083E091B002B8
:10134000F091B102808180688083E091B002F091D9
:10135000B10280818F7D808340E05BE460E070E0DB
:1013600083E194E00E94870460E27EE480E090E004
:101370000E94050862E571E08EE992E00E94D902C0
:101380006FE571E083E194E00E94D90264E670E0C9
:1013900080E090E00E9405086AE671E083E194E055
:1013A0000E94D90264E670E080E090E00E940508A7
:1013B000EE24E39487E0F82E92E0D92E01E083E159
:1013C00094E00E942A02181619060CF06BC06BED0F
:1013D00071E0CE0101960E9478030E944B0897FDB0
:1013E0001CC08F831886AD80BE802FEFA21AB20A70
:1013F000B501CE0101960E940203882371F3298171
:101400003A818D819E81BE01695F7F4F820F931F5C
:101410000E948B15BE82AD82E0CF809141039091F6
:101420004203009789F069817A816115710551F055
:1014300040914303509144032D813E81421753074D
:1014400008F008C50E94121489819A819093420382
:10145000809341038B819C81909344038093430349
:101460008D819E8190934603809345031A82198251
:101470001C821B821E821D82CE0101960E94730374
:10148000409145035091460360914103709142039E
:101490008EE992E00E9491016AE070E080E090E0C5
:1014A0000E9405086DE871E0CE0101960E94780364
:1014B000CE0101960E9461075C01CE0101960E9457
:1014C0007303B7FC16C061E084E00E947D076DE7FE
:1014D00071E08BE393E00E945C0360E871E08EE9C9
:1014E00092E00E94EE026BED71E081E493E00E94D5
:1014F0005C0361EA71E0CE0101960E947803CE019F
:1015000001960E9461075C01CE0101960E9473035F
:10151000B7FC16C060E084E00E947D0760E971E0DE
:101520008BE393E00E945C0364E971E08EE992E052
:101530000E94EE026BED71E081E493E00E945C0397
:1015400065EA71E0CE0101960E947803CE01019612
:101550000E9461075C01CE0101960E947303B7FCF3
:1015600014C061E085E00E947D0764E873E080E0DC
:1015700090E00E94050860E085E00E947D076BED29
:1015800071E081E493E00E945C036BEA71E0CE01BC
:1015900001960E947803CE0101960E9461075C01CA
:1015A000CE0101960E947303B7FC0AC061E083E09C
:1015B0000E947D076BED71E081E493E00E945C0383
:1015C00061EB71E0CE0101960E947803CE01019695
:1015D0000E9461075C01CE0101960E947303B7FC73
:1015E000ACC067EB71E0CE0101960E947803809158
:1015F0003F039091400380903B0390903C03AD806B
:10160000BE808114910409F42EC40097A9F0A80E9D
:10161000B91EB501CE0101960E940203882309F488
:1016200022C429813A818D819E81B401820F931F4A
:101630000E948B15BE82AD8218861F821A8619867B
:101640001C861B8669817A816115710531F04D8197
:101650005E81CE0107960E943B03CE0101960E9457
:1016600073031A8219821C821B821E821D826F8163
:1016700078856115710531F04B855C85CE01019649
:101680000E943B036FE571E083E194E00E94D90280
:1016900064E670E080E090E00E9405086FEB71E086
:1016A00083E194E00E94EE0264E670E080E090E066
:1016B0000E9405084D815E8169817A8183E194E011
:1016C0000E94910169ED71E083E194E00E94D902EA
:1016D00064E670E080E090E00E9405088AE10E94E4
:1016E000800669ED71E083E194E00E94D90264E62E
:1016F00070E080E090E00E94050869ED71E083E110
:1017000094E00E94D90268E873E180E090E00E94D2
:101710000508CE0101960E9473036CED71E08EE91D
:1017200092E00E94EE026BED71E081E493E00E9492
:101730005C03CE0107960E9473036FEE71E0CE0149
:1017400001960E947803CE0101960E9461075C0118
:10175000CE0101960E947303B7FC73C384EF93E03C
:101760000E942A02892B09F4ECC284EF93E00E94C4
:101770004202182F8091E4039091E503A091E603C3
:10178000B091E7030196A11DB11D8093E4039093EE
:10179000E503A093E603B093E703143209F4B0C263
:1017A000E091DE03153234F41A3071F01D3009F087
:1017B000B4C20AC01A3241F01C3209F0AEC28091A4
:1017C000CB0381278093CB03EF3008F08BC2F0E08E
:1017D000E353FC4F10828091CC03882309F46BC142
:1017E0002091CD033FEB320F822F022E000C990B7C
:1017F000363010F4C79707C02156263018F48755A5
:10180000910901C0C097282F2295207F3091CE03E7
:101810004FEB430F832F032E000C990B463010F42F
:10182000C79707C03156363018F48755910901C063
:10183000C097820F9091CB03891329C18091F00347
:101840009091F103A091F203B091F3030196A11DD1
:10185000B11D8093F0039093F103A093F203B09332
:10186000F3038091DF03882399F08091E80390913E
:10187000E903A091EA03B091EB030196A11DB11D0C
:101880008093E8039093E903A093EA03B093EB03FA
:10189000B090DC03BB2009F46BC081E0B812D0C06B
:1018A00080916F0390917003A0917103B0917203C6
:1018B00080936B0390936C03A0936D03B0936E03BE
:1018C0000E943F08609373037093740380937503C1
:1018D00090937603B0926A03B092690380917D037E
:1018E00090917E03A0917F03B09180038093790350
:1018F00090937A03A0937B03B0937C030E943F08EC
:101900006093810370938203809383039093840395
:10191000B0927803B09277038091DF03882309F4B3
:101920008FC0E7E5F3E0A9E4B3E08F2D01900D92BD
:101930008A95E1F7EEE5F3E0A0E5B3E08F2D0190A5
:101940000D928A95E1F70E943F08609365037093BA
:1019500066038093670390936803B0924803B09244
:10196000470385E893E00E948D0383E993E066C016
:1019700080917D0390917E03A0917F03B0918003BD
:101980008093790390937A03A0937B03B0937C03B5
:101990000E943F08609381037093820380938303C6
:1019A0009093840300937803009377038091DF037F
:1019B000882321F1E7E5F3E0A9E4B3E08F2D01905E
:1019C0000D928A95E1F7EEE5F3E0A0E5B3E08F2D07
:1019D00001900D928A95E1F70E943F08609365039C
:1019E00070936603809367039093680300934803A2
:1019F0000093470381EA93E00E948D038091B9032D
:101A00009091BA03A091BB03B091BC038093B5033E
:101A10009093B603A093B703B093B8030E943F0816
:101A20006093B1037093B2038093B3039093B403B4
:101A30000093B0030093AF038DEB93E00E948D03FE
:101A4000A090E203B090E303A114B10409F44AC1E9
:101A5000E091E203F091E30366A177A1F50186A18D
:101A600097A10E948215892B09F03CC1B501C501DF
:101A700040960E948B150E943F08F50160A371A358
:101A800082A393A3E5A2E4A2A2A4B3A4DDCF809194
:101A9000EC039091ED03A091EE03B091EF0301965A
:101AA000A11DB11D8093EC039093ED03A093EE0371
:101AB000B093EF0317C19091DD03911146C064EF1D
:101AC00071E08DEC93E00E948215892B41F06AEF62
:101AD00071E08DEC93E00E948215892B19F400933C
:101AE000DC0315C060E072E08DEC93E00E9482158B
:101AF000892B41F066E072E08DEC93E00E94821544
:101B0000892B19F41092DC0302C0D092DC0380917F
:101B1000E0039091E1039093E3038093E203A090AC
:101B2000E203B090E303A114B10409F4DBC0F501B2
:101B300086A097A06DEC73E0C4010E94821597FF08
:101B4000C5C0F50182A593A5E6CFE091DC03E230A4
:101B500009F491C08091CD03882309F48CC020E260
:101B6000E29FF0011124E92B3197E932F10508F0E9
:101B700082C0EC5CFF4F0C945B138DEC93E00E94F1
:101B80002C0460937D0370937E0380937F03909376
:101B9000800371C091E0813409F043C043C067E520
:101BA00073E009C091E0833509F090E090935D0304
:101BB00062C06EE573E08DEC93E00E94A4035BC00D
:101BC00091E0873509F090E09093640354C08DEC68
:101BD00093E00E942C0460938F0370939003809392
:101BE00091039093920347C08DEC93E00E942C04E4
:101BF00060939D0370939E0380939F039093A00333
:101C00003AC08DEC93E00E942D1060936F037093A7
:101C1000700380937103909372032DC091E0813320
:101C20000CF490E09093DF0326C08DEC93E00E94CB
:101C30002D106093B9037093BA038093BB03909304
:101C4000BC0319C08DEC93E00E942C046093C70381
:101C50007093C8038093C9039093CA030CC08DECA2
:101C600093E00E942C046093AB037093AC038093C9
:101C7000AD039093AE03A090E203B090E303A114F0
:101C8000B10481F1E091E203F091E30366A177A151
:101C9000F50186A197A10E948215892B19F5F501FE
:101CA00020A531A58091DD0390E082179307D4F041
:101CB0002817390739F440E150E06DEC73E0C501B5
:101CC0000E949215F501A2A4B3A4D9CF6DEC73E0E4
:101CD000C4010E9482151816190624F41092E30319
:101CE0001092E2038091DD038F5F8093DD031092F9
:101CF000DE0381E01A3209F080E08093CC032ECD20
:101D00001092DE031092DD031092CB03D092DC031D
:101D10001092CC031092DF0321CDEE3040F481E02D
:101D20008E0F8093DE03F0E0E353FC4F108380912D
:101D3000CC03811113CD8091CB0318271093CB03D3
:101D40000DCD80914803882309F47BC06CE072E0DC
:101D500083E194E00E94EE0264EF71E080E090E0A5
:101D60000E94050862E272E083E194E00E94D902D9
:101D7000109248036091490370914A0380E090E01B
:101D80000E946E104B015C0160914B0370914C03FB
:101D900080914D0390914E030E946E1028E23BE625
:101DA0004EE65EE40E944B129B01AC01C501B401FA
:101DB0000E94DF1120914F032111905846E00E94AC
:101DC0008B0662E472E083E194E00E94D9021092F3
:101DD0004803609150037091510380E090E00E94AD
:101DE0006E104B015C01609152037091530380911E
:101DF0005403909155030E946E1028E23BE64EE694
:101E00005EE40E944B129B01AC01C501B4010E942B
:101E1000DF11209156032111905846E00E948B0655
:101E200060E177E280E090E00E9405086AE183E1EA
:101E300094E00E94D60164EF71E080E090E00E949F
:101E4000050868E873E180E090E00E9405080E94C0
:101E50008701B5CA0E948B158D819E8190934603A0
:101E60008093450307CBCE0101960E942903E4CB62
:101E70008BE393E00E94730381E493E00E94730379
:101E800084EF93E00E94630283E194E00C94630288
:101E9000EEE9F2E01382128288EE93E0A0E0B0E077
:101EA00084839583A683B7838CE191E091838083BB
:101EB00085EC90E09587848784EC90E0978786870F
:101EC00080EC90E0918B808B81EC90E0938B828B07
:101ED00082EC90E0958B848B86EC90E0978B868BE0
:101EE000118E128E138E148E20E048E067E083E19D
:101EF00094E00E94380520E04BE06AE084EF93E034
:101F00000E943805E7E4F3E0108211821382128206
:101F10001482158216821782108612861186138605
:101F20001486158616861786118A108A128A138AD5
:101F3000148A158A168A108E178A118E128E138EA5
:101F4000148E158E12A213A214A215A216A217A205
:101F500010AA11AA12AA13AA14AA15AA10928503EC
:101F60001092860310928B0310928C0310928D03B3
:101F700010928E031092930310929403109299037F
:101F800010929A0310929B0310929C031092A1034B
:101F90001092A2031092A7031092A8031092A90313
:101FA0001092AA031092AF031092B0031092B503DF
:101FB0001092B6031092B7031092B8031092BD03AB
:101FC0001092BE031092C3031092C4031092C50373
:101FD0001092C6031092CB031092CC0382E0809340
:101FE000DC031092DD031092DE031092DF031092E7
:101FF000E1031092E0031092E3031092E2031092C7
:10200000E4031092E5031092E6031092E7031092A6
:10201000E8031092E9031092EA031092EB03109286
:10202000EC031092ED031092EE031092EF03109266
:10203000F0031092F1031092F2031092F303109246
:10204000CD036BED71E081E493E00E94780369E4D5
:1020500072E08BE393E00C9478031F93FC019927C3
:102060008827BC01E89411911032E9F3193010F07F
:102070001E30C8F31B3251F01D3249F4689406C07B
:102080000E945410610F711D811D911D11911053FB
:102090001A30B0F33EF490958095709561957F4F1E
:1020A0008F4F9F4F1F910895592F482F372F262F5D
:1020B000660F771F881F991F660F771F881F991F4C
:1020C000620F731F841F951F660F771F881F991F4C
:1020D00008950E94AB1008F481E00895E89409C0C7
:1020E00097FB3EF490958095709561957F4F8F4F4B
:1020F0009F4F9923A9F0F92F96E9BB279395F69561
:10210000879577956795B795F111F8CFFAF4BB0FDE
:1021100011F460FF1BC06F5F7F4F8F4F9F4F16C042
:10212000882311F096E911C0772321F09EE8872FCC
:10213000762F05C0662371F096E8862F70E060E088
:102140002AF09A95660F771F881FDAF7880F969501
:10215000879597F90895990F0008550FAA0BE0E8A5
:10216000FEEF16161706E807F907C0F01216130659
:10217000E407F50798F0621B730B840B950B39F499
:102180000A2661F0232B242B252B21F408950A26FF
:1021900009F4A140A6958FEF811D811D08950E942D
:1021A000E2100C9453110E94451138F00E944C111A
:1021B00020F0952311F00C943C110C944211112441
:1021C0000C9487110E94641170F3959FC1F3950FD1
:1021D00050E0551F629FF001729FBB27F00DB11DAB
:1021E000639FAA27F00DB11DAA1F649F6627B00D3B
:1021F000A11D661F829F2227B00DA11D621F739F24
:10220000B00DA11D621F839FA00D611D221F749F31
:102210003327A00D611D231F849F600D211D822F78
:10222000762F6A2F11249F5750409AF0F1F088239F
:102230004AF0EE0FFF1FBB1F661F771F881F9150CC
:102240005040A9F79E3F510580F00C943C110C942E
:1022500087115F3FE4F3983ED4F3869577956795B1
:10226000B795F795E7959F5FC1F7FE2B880F911DF6
:102270009695879597F9089597F99F6780E870E09C
:1022800060E008959FEF80EC089500240A941616EC
:10229000170618060906089500240A941216130654
:1022A000140605060895092E0394000C11F48823E2
:1022B00052F0BB0F40F4BF2B11F460FF04C06F5FFE
:1022C0007F4F8F4F9F4F089557FD9058440F551FD4
:1022D00059F05F3F71F04795880F97FB991F61F0A8
:1022E0009F3F79F087950895121613061406551F1F
:1022F000F2CF4695F1DF08C0161617061806991F8B
:10230000F1CF86957105610508940895E894BB277F
:1023100066277727CB0197F908950E94CF11A59FD3
:10232000900DB49F900DA49F800D911D11240895D0
:102330002F923F924F925F926F927F928F929F92D5
:10234000AF92BF92CF92DF92EF92FF920F931F93C3
:10235000CF93DF93CDB7DEB7CA1BDB0B0FB6F89474
:10236000DEBF0FBECDBF09942A88398848885F84B4
:102370006E847D848C849B84AA84B984C884DF8025
:10238000EE80FD800C811B81AA81B981CE0FD11D09
:102390000FB6F894DEBF0FBECDBFED010895A29F2A
:1023A000B001B39FC001A39F700D811D1124911D29
:1023B000B29F700D811D1124911D08955058BB27A7
:1023C000AA270E94F6110C9453110E94451138F06F
:1023D0000E944C1120F039F49F3F19F426F40C941C
:1023E00042110EF4E095E7FB0C943C11E92F0E949A
:1023F000641158F3BA17620773078407950720F032
:1024000079F4A6F50C9486110EF4E0950B2EBA2FF4
:10241000A02D0B01B90190010C01CA01A0011124EA
:10242000FF27591B99F0593F50F4503E68F11A1696
:10243000F040A22F232F342F4427585FF3CF469527
:1024400037952795A795F0405395C9F77EF41F1649
:10245000BA0B620B730B840BBAF09150A1F0FF0F13
:10246000BB1F661F771F881FC2F70EC0BA0F621FFF
:10247000731F841F48F4879577956795B795F795EF
:102480009E3F08F0B0CF9395880F08F09927EE0F84
:102490009795879508950E945F120C9453110E949E
:1024A0004C1158F00E94451140F029F45F3F29F08B
:1024B0000C943C1151110C9487110C9442110E9400
:1024C000641168F39923B1F3552391F3951B550BD0
:1024D000BB27AA2762177307840738F09F5F5F4FF7
:1024E000220F331F441FAA1FA9F335D00E2E3AF036
:1024F000E0E832D091505040E695001CCAF72BD04E
:10250000FE2F29D0660F771F881FBB1F261737079E
:102510004807AB07B0E809F0BB0B802DBF01FF27D0
:1025200093585F4F3AF09E3F510578F00C943C1160
:102530000C9487115F3FE4F3983ED4F3869577952A
:102540006795B795F7959F5FC9F7880F911D969589
:10255000879597F90895E1E0660F771F881FBB1FE5
:10256000621773078407BA0720F0621B730B840B92
:10257000BA0BEE1F88F7E09508950E946C1188F061
:102580009F5798F0B92F9927B751B0F0E1F0660F37
:10259000771F881F991F1AF0BA95C9F714C0B13078
:1025A00091F00E948611B1E008950C948611672F76
:1025B000782F8827B85F39F0B93FCCF386957795A7
:1025C0006795B395D9F73EF4909580957095619590
:1025D0007F4F8F4F9F4F08950E94AB1008F48FEFED
:1025E00008950E94AB10880B990B0895DB018F931F
:1025F0009F930E948D11BF91AF91A29F800D911D5D
:10260000A39F900DB29F900D1124089597FB072E64
:1026100016F4009407D077FD09D00E94691307FCD7
:1026200005D03EF4909581959F4F089570956195E2
:102630007F4F0895A1E21A2EAA1BBB1BFD010DC0FE
:10264000AA1FBB1FEE1FFF1FA217B307E407F50762
:1026500020F0A21BB30BE40BF50B661F771F881F3E
:10266000991F1A9469F760957095809590959B01D4
:10267000AC01BD01CF010895052E97FB1EF4009417
:102680000E94531357FD07D00E941A1307FC03D072
:102690004EF40C94531350954095309521953F4F2F
:1026A0004F4F5F4F089590958095709561957F4F3E
:1026B0008F4F9F4F0895EE0FFF1F0590F491E02D6F
:1026C0000994B7FF0C948D110E948D11821B930BFE
:1026D0000895AA1BBB1B51E107C0AA1FBB1FA61769
:1026E000B70710F0A61BB70B881F991F5A95A9F7BB
:1026F00080959095BC01CD010895CF93DF938230F2
:10270000910510F482E090E0E0913D04F0913E04E8
:1027100020E030E0C0E0D0E0309711F140815181FD
:1027200048175907C0F04817590761F4828193810F
:10273000209719F09B838A832BC090933E0480934B
:102740003D0426C02115310519F04217530718F42E
:102750009A01BE01DF01EF010280F381E02DDCCFA1
:102760002115310509F1281B390B2430310590F46E
:1027700012968D919C9113976115710521F0FB01C3
:102780009383828304C090933E0480933D04FD01B3
:10279000329644C0FD01E20FF31F819391932250C2
:1027A00031092D933C933AC020913B0430913C0475
:1027B000232B41F4209102013091030130933C041A
:1027C00020933B0420910001309101012115310536
:1027D00041F42DB73EB74091040150910501241BEF
:1027E000350BE0913B04F0913C04E217F307A0F4B1
:1027F0002E1B3F0B2817390778F0AC014E5F5F4F57
:102800002417350748F04E0F5F1F50933C04409348
:102810003B048193919302C0E0E0F0E0CF01DF91AF
:10282000CF9108950F931F93CF93DF93009709F4EF
:102830008CC0FC0132971382128200913D041091EA
:102840003E040115110581F420813181820F931F0F
:1028500020913B0430913C042817390779F5F09317
:102860003C04E0933B0471C0D80140E050E0AE1757
:10287000BF0750F412962D913C911397AD0121158D
:10288000310509F1D901F3CF9D01DA0133832283A8
:1028900060817181860F971F8217930769F4EC019D
:1028A00028813981260F371F2E5F3F4F31832083C8
:1028B0008A819B8193838283452B29F4F0933E0484
:1028C000E0933D0442C01396FC93EE931297ED0102
:1028D000499159919E01240F351FE217F30771F4B6
:1028E00080819181840F951F029611969C938E93FF
:1028F0008281938113969C938E931297E0E0F0E08F
:10290000D80112968D919C911397009719F0F801B8
:102910008C01F6CF8D919C9198012E5F3F4F820FD5
:10292000931F20913B0430913C042817390769F428
:10293000309729F410923E0410923D0402C0138295
:10294000128210933C0400933B04DF91CF911F91BE
:102950000F910895A0E0B0E0E0EBF4E10C949C113D
:10296000EC01009721F4CB010E947D13B8C0FC015B
:10297000E60FF71F9C0122503109E217F30708F414
:10298000ACC0D9010D911C91119706171707B0F033
:102990000530110508F49FC0C801049786179707F2
:1029A00008F499C002501109061B170B01931193EB
:1029B0006D937C93CF010E9412148DC05B01A01A0D
:1029C000B10A4C01800E911EA0913D04B0913E04CD
:1029D00040E050E0E12CF12C109709F44AC0A81512
:1029E000B905D1F56D907C901197630182E0C80E16
:1029F000D11CCA14DB0480F1A3014A195B096A01E6
:102A000082E0C80ED11C1296BC9012971396AC911E
:102A1000B5E0CB16D10440F0B282A383518340834A
:102A2000D9016D937C930AC00E5F1F4FC301800FC5
:102A3000911FF90191838083EB2DFA2FE114F104AA
:102A400031F0D7011396FC93EE93129744C0F093A4
:102A50003E04E0933D043FC08D919C91119748172F
:102A6000590708F4AC017D0112960D90BC91A02D80
:102A7000B3CF80913B0490913C0488159905E1F413
:102A800046175707C8F48091000190910101009703
:102A900041F48DB79EB74091040150910501841B0C
:102AA000950BE817F907C8F4F0933C04E0933B0456
:102AB000F901718360830FC0CB010E947D137C01FB
:102AC000009759F0A801BE010E947915CE010E941D
:102AD0001214C70104C0CE0102C080E090E0CDB75F
:102AE000DEB7EEE00C94B81181E090E0F8940C941D
:102AF000BB15FB01DC0102C001900D92415050401A
:102B0000D8F70895FB01DC018D9101908019011027
:102B1000D9F3990B0895FB01DC0101900D9200207F
:102B2000E1F70895FB01DC014150504048F001906D
:102B30000D920020C9F701C01D9241505040E0F7AE
:102B40000895FB0151915523A9F0BF01DC014D917E
:102B500045174111E1F759F4CD010190002049F0EA
:102B60004D9140154111C9F3FB014111EFCF81E0B7
:102B700090E00197089510E0CBE8D0E004C0FE019A
:102B80000E945B132196CC38D107C9F7F894FFCF88
:102B900000003F04800000000000D60191017C028B
:102BA000D5012A024202BD01000000001E01910170
:102BB000B6006501E700C500D900000000007F02F3
:102BC00091017C027B027F027F027F0200000000F5
:102BD0007F0291017C027B0241542B434D47463DCD
:102BE0003100736D732072656164792E2E2E004161
:102BF000542B434D47463D310D0041542B434E4D20
:102C0000493D322C322C302C302C300D006F6E00B0
:102C100052656C61792073657420746F204F4E008B
:102C20006F66660052656C61792073657420746FFD
:102C3000204F464600535441525400544845465490
:102C40000053544154450043617220697320004190
:102C500054202B20434D4753203D2022303935301E
:102C60003138303939303522000D0A004361722085
:102C70007374617465207265737175657374004651
:102C8000494E44004750524D4300474E524D430079
:102C9000475047474100474E4747410041542B4367
:102CA0004D47533D223039353031383039393035A0
:102CB000220068747470733A2F2F7777772E6C61C7
:102CC000746C6F6E672E6E65742F632F3F6C61742A
:102CD0003D00266C6F6E673D0048494748006E61B5
:0A2CE0006E00696E66006F766600F4
:00000001FF
